:10080000E4F5A07F3812091B12090C7F0112091BA5
:1008100012090C7F0612091B12090C7F0C12091B0E
:1008200012090C7F8012091B12090CC29020940B34
:100830007F3112092912090C1208EF20950B7F3223
:1008400012092912090C1208EF20960B7F331209A6
:100850002912090C1208EFD290C29120940B7F3418
:1008600012092912090C1208EF20950B7F35120985
:100870002912090C1208EF20960B7F361209291253
:10088000090C1208EFD291D290C29220940B7F37BC
:1008900012092912090C1208EF20950B7F38120952
:1008A0002912090C1208EF20960B7F391209291220
:1008B000090C1208EFD292D291D290C29320940BDD
:1008C0007F2A12092912090C1208EF20950B7F309C
:1008D00012092912090C1208EF30960302082B7F27
:0F08E0002312092912090C1208EFD29302082BD8
:0E091B008FA0C2B0C2B1D2B212090CC2B22279
:0E0929008FA0D2B0C2B1D2B212090CC2B2225B
:0E090C00E4FFFE0FBF00010EBE27F8BF10F57E
:01091A0022BA
:1008EF00E4FFFEE4FDFC0DBD00010CBC07F8BDD01C
:0C08FF00F50FBF00010EEF64C84E70E75B
:01090B0022C9
:03000000020937BB
:0C093700787FE4F6D8FD75810702080007
:00000001FF
