:1009850020454E5445522054484520504153535715
:100995004F5244200050494E20434F525245435434
:1009A50000444F4F52204F50454E45440050494E4C
:0B09B50020494E434F5252454354006E
:080A7B00060D31323334350061
:100A5C007F0F120A4E7F38120A4E7F01120A4E8007
:010A6C00FE8B
:090A1E007F2A120A6D7FE87E03B5
:100A2700E4FDFCC3ED9FEC9E5015E4FBFA0BBB0005
:0F0A3700010AEB640A4A70F50DBD00010C80E462
:010A4600228D
:070A47007F01120A4E7F81BE
:0E0A4E008F90C2B5C2B6D2B7120A23C2B72229
:0E0A6D008F90D2B5C2B6D2B7120A23C2B722FA
:0609C0008B138A14891557
:1009C600E4F516F517AB13AA14A915851782851633
:1009D600831209F1FF600D120A6D0517E51770E520
:0B09E600051680E17F107E27020A2723
:10080000E4FFFEEF4E6003020898C2A0D2A1D2A27C
:10081000D2A320B006120A1E7F312220B106120A8E
:100820001E7F322220B206120A1E7F3322D2A0C2BD
:10083000A1D2A2D2A320B006120A1E7F342220B178
:1008400006120A1E7F352220B206120A1E7F3622A9
:10085000D2A0D2A1C2A2D2A320B006120A1E7F3714
:100860002220B106120A1E7F382220B206120A1E6A
:100870007F3922D2A0D2A1D2A2C2A320B006120AEE
:100880001E7F2A2220B106120A1E7F302230B203B8
:08089000020803120A1E7F2377
:01089800223D
:10092500E50D65087045E50E6509703FE50F650A3B
:100935007039E510650B7033E511650C702D120AE1
:1009450023120A477BFF7A09799A1209C0120A23F2
:10095500D2B3C2B47FC1120A4E7BFF7A0979A612BF
:1009650009C0120A23D2B3C2B4800F120A477BFF13
:100975007A0979B21209C0120A237F01120A4E229E
:030000000208995A
:0C089900787FE4F6D8FD7581190208E0B4
:1009F100BB010CE58229F582E5833AF583E02250BB
:100A010006E92582F8E622BBFE06E92582F8E22204
:0D0A1100E58229F582E5833AF583E493221E
:1008A500020A5CE493A3F8E493A34003F68001F203
:1008B50008DFF48029E493A3F85407240CC8C33354
:1008C500C4540F4420C8834004F456800146F6DF23
:1008D500E4800B0102040810204080900A7BE47E2E
:1008E500019360BCA3FF543F30E509541FFEE49318
:1008F500A360010ECF54C025E060A840B8E493A3DF
:10090500FAE493A3F8E493A3C8C582C8CAC583CA09
:10091500F0A3C8C582C8CAC583CADFE9DEE780BEC1
:010A83000072
:00000001FF
