:10080000C291C292C290D290900000AF82AE83E4B7
:10081000FCFD7B607AEAF9F8D312089C4003A380C0
:10082000EAE4F583F582AF82AE83E4FCFD7B607A77
:10083000EAF9F8D312089C4003A380EAC290D2914F
:10084000E4F583F582AF82AE83E4FCFD7B607AEA57
:10085000F9F8D312089C4003A380EAC291D292E433
:10086000F583F582AF82AE83E4FCFD7B607AEAF922
:10087000F8D312089C4003A380EAE4F583F582AF25
:1008800082AE83E4FCFD7B607AEAF9F8D312089C1F
:0C0890004003A380EAC292C29002080656
:030000000208B241
:0C08B200787FE4F6D8FD7581070208008D
:10089C00EB9FF5F0EA9E42F0E99D42F0EC6480C8D3
:0608AC0064809845F02273
:00000001FF
